{
  "contractName": "SmartClaims",
  "abi": [
    {
      "constant": true,
      "inputs": [
        {
          "internalType": "address",
          "name": "",
          "type": "address"
        }
      ],
      "name": "autoMap",
      "outputs": [
        {
          "internalType": "string",
          "name": "firstName",
          "type": "string"
        }
      ],
      "payable": false,
      "stateMutability": "view",
      "type": "function"
    },
    {
      "constant": true,
      "inputs": [
        {
          "internalType": "address",
          "name": "",
          "type": "address"
        }
      ],
      "name": "firstsa",
      "outputs": [
        {
          "internalType": "string",
          "name": "firstName",
          "type": "string"
        },
        {
          "internalType": "string",
          "name": "lastName",
          "type": "string"
        },
        {
          "internalType": "string",
          "name": "gender",
          "type": "string"
        },
        {
          "internalType": "string",
          "name": "dob",
          "type": "string"
        },
        {
          "internalType": "string",
          "name": "licenseNumber",
          "type": "string"
        },
        {
          "internalType": "string",
          "name": "phoneNumber",
          "type": "string"
        },
        {
          "internalType": "uint256",
          "name": "policyNumber",
          "type": "uint256"
        }
      ],
      "payable": false,
      "stateMutability": "view",
      "type": "function"
    },
    {
      "constant": true,
      "inputs": [
        {
          "internalType": "address",
          "name": "",
          "type": "address"
        }
      ],
      "name": "firstsh",
      "outputs": [
        {
          "internalType": "string",
          "name": "firstName",
          "type": "string"
        },
        {
          "internalType": "string",
          "name": "lastName",
          "type": "string"
        },
        {
          "internalType": "string",
          "name": "gender",
          "type": "string"
        },
        {
          "internalType": "string",
          "name": "dob",
          "type": "string"
        },
        {
          "internalType": "string",
          "name": "city",
          "type": "string"
        },
        {
          "internalType": "string",
          "name": "state",
          "type": "string"
        },
        {
          "internalType": "string",
          "name": "zip",
          "type": "string"
        }
      ],
      "payable": false,
      "stateMutability": "view",
      "type": "function"
    },
    {
      "constant": true,
      "inputs": [
        {
          "internalType": "address",
          "name": "",
          "type": "address"
        }
      ],
      "name": "firstsp",
      "outputs": [
        {
          "internalType": "string",
          "name": "firstName",
          "type": "string"
        },
        {
          "internalType": "string",
          "name": "lastName",
          "type": "string"
        },
        {
          "internalType": "string",
          "name": "gender",
          "type": "string"
        },
        {
          "internalType": "uint256",
          "name": "estimateLoss",
          "type": "uint256"
        },
        {
          "internalType": "string",
          "name": "lossExp",
          "type": "string"
        },
        {
          "internalType": "string",
          "name": "damagedDescription",
          "type": "string"
        },
        {
          "internalType": "string",
          "name": "personContacted",
          "type": "string"
        },
        {
          "internalType": "uint256",
          "name": "reportNum",
          "type": "uint256"
        }
      ],
      "payable": false,
      "stateMutability": "view",
      "type": "function"
    },
    {
      "constant": true,
      "inputs": [
        {
          "internalType": "address",
          "name": "",
          "type": "address"
        }
      ],
      "name": "fourthsa",
      "outputs": [
        {
          "internalType": "string",
          "name": "city",
          "type": "string"
        },
        {
          "internalType": "string",
          "name": "accidentExplanation",
          "type": "string"
        }
      ],
      "payable": false,
      "stateMutability": "view",
      "type": "function"
    },
    {
      "constant": true,
      "inputs": [
        {
          "internalType": "address",
          "name": "",
          "type": "address"
        }
      ],
      "name": "secondsa",
      "outputs": [
        {
          "internalType": "string",
          "name": "state",
          "type": "string"
        },
        {
          "internalType": "string",
          "name": "zip",
          "type": "string"
        },
        {
          "internalType": "string",
          "name": "vehicleMake",
          "type": "string"
        },
        {
          "internalType": "string",
          "name": "vehicleModel",
          "type": "string"
        },
        {
          "internalType": "string",
          "name": "vehicleYear",
          "type": "string"
        },
        {
          "internalType": "string",
          "name": "vehicleColor",
          "type": "string"
        },
        {
          "internalType": "string",
          "name": "licensePlate",
          "type": "string"
        }
      ],
      "payable": false,
      "stateMutability": "view",
      "type": "function"
    },
    {
      "constant": true,
      "inputs": [
        {
          "internalType": "address",
          "name": "",
          "type": "address"
        }
      ],
      "name": "secondsh",
      "outputs": [
        {
          "internalType": "string",
          "name": "phoneNumber",
          "type": "string"
        },
        {
          "internalType": "uint256",
          "name": "accountNumber",
          "type": "uint256"
        },
        {
          "internalType": "uint256",
          "name": "socialSecurity",
          "type": "uint256"
        },
        {
          "internalType": "string",
          "name": "employerName",
          "type": "string"
        },
        {
          "internalType": "string",
          "name": "status",
          "type": "string"
        },
        {
          "internalType": "bool",
          "name": "employmentRelated",
          "type": "bool"
        },
        {
          "internalType": "string",
          "name": "description",
          "type": "string"
        },
        {
          "internalType": "bool",
          "name": "autoAccident",
          "type": "bool"
        }
      ],
      "payable": false,
      "stateMutability": "view",
      "type": "function"
    },
    {
      "constant": true,
      "inputs": [
        {
          "internalType": "address",
          "name": "",
          "type": "address"
        }
      ],
      "name": "secondsp",
      "outputs": [
        {
          "internalType": "string",
          "name": "personResponsible",
          "type": "string"
        },
        {
          "internalType": "string",
          "name": "comments",
          "type": "string"
        },
        {
          "internalType": "string",
          "name": "personReportName",
          "type": "string"
        },
        {
          "internalType": "string",
          "name": "personReportPhone",
          "type": "string"
        },
        {
          "internalType": "string",
          "name": "personReportEmail",
          "type": "string"
        },
        {
          "internalType": "string",
          "name": "personReportDate",
          "type": "string"
        }
      ],
      "payable": false,
      "stateMutability": "view",
      "type": "function"
    },
    {
      "constant": true,
      "inputs": [
        {
          "internalType": "address",
          "name": "",
          "type": "address"
        }
      ],
      "name": "thirdsa",
      "outputs": [
        {
          "internalType": "string",
          "name": "accidentDate",
          "type": "string"
        },
        {
          "internalType": "string",
          "name": "accidentTime",
          "type": "string"
        },
        {
          "internalType": "string",
          "name": "accidentLocation",
          "type": "string"
        },
        {
          "internalType": "string",
          "name": "driverName",
          "type": "string"
        },
        {
          "internalType": "bool",
          "name": "towed",
          "type": "bool"
        },
        {
          "internalType": "uint256",
          "name": "passengerNum",
          "type": "uint256"
        },
        {
          "internalType": "uint256",
          "name": "carsNum",
          "type": "uint256"
        },
        {
          "internalType": "string",
          "name": "damagedArea",
          "type": "string"
        }
      ],
      "payable": false,
      "stateMutability": "view",
      "type": "function"
    },
    {
      "constant": true,
      "inputs": [
        {
          "internalType": "address",
          "name": "",
          "type": "address"
        }
      ],
      "name": "thirdsh",
      "outputs": [
        {
          "internalType": "bool",
          "name": "medicareCovered",
          "type": "bool"
        },
        {
          "internalType": "string",
          "name": "insuranceCompanyName",
          "type": "string"
        },
        {
          "internalType": "uint256",
          "name": "dateAccident",
          "type": "uint256"
        },
        {
          "internalType": "string",
          "name": "signature",
          "type": "string"
        }
      ],
      "payable": false,
      "stateMutability": "view",
      "type": "function"
    },
    {
      "constant": false,
      "inputs": [
        {
          "internalType": "address",
          "name": "_address",
          "type": "address"
        },
        {
          "internalType": "string",
          "name": "_firstName",
          "type": "string"
        },
        {
          "internalType": "string",
          "name": "_lastName",
          "type": "string"
        },
        {
          "internalType": "string",
          "name": "_gender",
          "type": "string"
        },
        {
          "internalType": "string",
          "name": "_dob",
          "type": "string"
        },
        {
          "internalType": "string",
          "name": "_licenseNumber",
          "type": "string"
        },
        {
          "internalType": "string",
          "name": "_phoneNumber",
          "type": "string"
        },
        {
          "internalType": "uint256",
          "name": "_policyNumber",
          "type": "uint256"
        }
      ],
      "name": "fileAutoClaimfirst",
      "outputs": [],
      "payable": false,
      "stateMutability": "nonpayable",
      "type": "function"
    },
    {
      "constant": false,
      "inputs": [
        {
          "internalType": "address",
          "name": "_address",
          "type": "address"
        },
        {
          "internalType": "string",
          "name": "_state",
          "type": "string"
        },
        {
          "internalType": "string",
          "name": "_zip",
          "type": "string"
        },
        {
          "internalType": "string",
          "name": "_vehicleMake",
          "type": "string"
        },
        {
          "internalType": "string",
          "name": "_vehicleModel",
          "type": "string"
        },
        {
          "internalType": "string",
          "name": "_vehicleYear",
          "type": "string"
        },
        {
          "internalType": "string",
          "name": "_vehicleColor",
          "type": "string"
        },
        {
          "internalType": "string",
          "name": "_licensePlate",
          "type": "string"
        }
      ],
      "name": "fileAutoClaimsecond",
      "outputs": [],
      "payable": false,
      "stateMutability": "nonpayable",
      "type": "function"
    },
    {
      "constant": false,
      "inputs": [
        {
          "internalType": "address",
          "name": "_address",
          "type": "address"
        },
        {
          "internalType": "string",
          "name": "_accidentDate",
          "type": "string"
        },
        {
          "internalType": "string",
          "name": "_accidentTime",
          "type": "string"
        },
        {
          "internalType": "string",
          "name": "_accidentLocation",
          "type": "string"
        },
        {
          "internalType": "string",
          "name": "_driverName",
          "type": "string"
        },
        {
          "internalType": "bool",
          "name": "_towed",
          "type": "bool"
        },
        {
          "internalType": "uint256",
          "name": "_passengerNum",
          "type": "uint256"
        },
        {
          "internalType": "uint256",
          "name": "_carsNum",
          "type": "uint256"
        },
        {
          "internalType": "string",
          "name": "_damagedArea",
          "type": "string"
        }
      ],
      "name": "fileAutoClaimsthird",
      "outputs": [],
      "payable": false,
      "stateMutability": "nonpayable",
      "type": "function"
    },
    {
      "constant": false,
      "inputs": [
        {
          "internalType": "address",
          "name": "_address",
          "type": "address"
        },
        {
          "internalType": "string",
          "name": "_city",
          "type": "string"
        },
        {
          "internalType": "string",
          "name": "_accidentExplanation",
          "type": "string"
        }
      ],
      "name": "fileAutoClaimsfourth",
      "outputs": [],
      "payable": false,
      "stateMutability": "nonpayable",
      "type": "function"
    },
    {
      "constant": false,
      "inputs": [
        {
          "internalType": "address",
          "name": "_address",
          "type": "address"
        },
        {
          "internalType": "string",
          "name": "_firstName",
          "type": "string"
        },
        {
          "internalType": "string",
          "name": "_lastName",
          "type": "string"
        },
        {
          "internalType": "string",
          "name": "_gender",
          "type": "string"
        },
        {
          "internalType": "uint256",
          "name": "_estimateLoss",
          "type": "uint256"
        },
        {
          "internalType": "string",
          "name": "_lossExp",
          "type": "string"
        },
        {
          "internalType": "string",
          "name": "_damagedDescription",
          "type": "string"
        },
        {
          "internalType": "string",
          "name": "_personContacted",
          "type": "string"
        },
        {
          "internalType": "uint256",
          "name": "_reportNum",
          "type": "uint256"
        }
      ],
      "name": "filePropertyClaimfirst",
      "outputs": [],
      "payable": false,
      "stateMutability": "nonpayable",
      "type": "function"
    },
    {
      "constant": false,
      "inputs": [
        {
          "internalType": "address",
          "name": "_address",
          "type": "address"
        },
        {
          "internalType": "string",
          "name": "personResponsible",
          "type": "string"
        },
        {
          "internalType": "string",
          "name": "comments",
          "type": "string"
        },
        {
          "internalType": "string",
          "name": "personReportName",
          "type": "string"
        },
        {
          "internalType": "string",
          "name": "personReportPhone",
          "type": "string"
        },
        {
          "internalType": "string",
          "name": "personReportEmail",
          "type": "string"
        },
        {
          "internalType": "string",
          "name": "personReportDate",
          "type": "string"
        }
      ],
      "name": "filePropertyClaimsecond",
      "outputs": [],
      "payable": false,
      "stateMutability": "nonpayable",
      "type": "function"
    },
    {
      "constant": false,
      "inputs": [
        {
          "internalType": "address",
          "name": "_address",
          "type": "address"
        },
        {
          "internalType": "string",
          "name": "_firstName",
          "type": "string"
        },
        {
          "internalType": "string",
          "name": "_lastName",
          "type": "string"
        },
        {
          "internalType": "string",
          "name": "_gender",
          "type": "string"
        },
        {
          "internalType": "string",
          "name": "_dob",
          "type": "string"
        },
        {
          "internalType": "string",
          "name": "_city",
          "type": "string"
        },
        {
          "internalType": "string",
          "name": "_state",
          "type": "string"
        },
        {
          "internalType": "string",
          "name": "_zip",
          "type": "string"
        }
      ],
      "name": "fileHealthClaimfirst",
      "outputs": [],
      "payable": false,
      "stateMutability": "nonpayable",
      "type": "function"
    },
    {
      "constant": false,
      "inputs": [
        {
          "internalType": "address",
          "name": "_address",
          "type": "address"
        },
        {
          "internalType": "string",
          "name": "_phoneNumber",
          "type": "string"
        },
        {
          "internalType": "uint256",
          "name": "_accountNumber",
          "type": "uint256"
        },
        {
          "internalType": "uint256",
          "name": "_socialSecurity",
          "type": "uint256"
        },
        {
          "internalType": "string",
          "name": "_employerName",
          "type": "string"
        },
        {
          "internalType": "string",
          "name": "_status",
          "type": "string"
        },
        {
          "internalType": "bool",
          "name": "_employmentRelated",
          "type": "bool"
        },
        {
          "internalType": "string",
          "name": "_description",
          "type": "string"
        },
        {
          "internalType": "bool",
          "name": "_autoAccident",
          "type": "bool"
        }
      ],
      "name": "fileHealthClaimsecond",
      "outputs": [],
      "payable": false,
      "stateMutability": "nonpayable",
      "type": "function"
    },
    {
      "constant": false,
      "inputs": [
        {
          "internalType": "address",
          "name": "_address",
          "type": "address"
        },
        {
          "internalType": "bool",
          "name": "_medicareCovered",
          "type": "bool"
        },
        {
          "internalType": "string",
          "name": "_insuranceCompanyName",
          "type": "string"
        },
        {
          "internalType": "uint256",
          "name": "_dateAccident",
          "type": "uint256"
        },
        {
          "internalType": "string",
          "name": "_signature",
          "type": "string"
        }
      ],
      "name": "fileHealthClaimthird",
      "outputs": [],
      "payable": false,
      "stateMutability": "nonpayable",
      "type": "function"
    },
    {
      "constant": false,
      "inputs": [
        {
          "internalType": "address",
          "name": "_address",
          "type": "address"
        },
        {
          "components": [
            {
              "internalType": "string",
              "name": "firstName",
              "type": "string"
            }
          ],
          "internalType": "struct SmartClaims.AutoClaim",
          "name": "_claim",
          "type": "tuple"
        }
      ],
      "name": "fileAutoClaim",
      "outputs": [],
      "payable": false,
      "stateMutability": "nonpayable",
      "type": "function"
    },
    {
      "constant": true,
      "inputs": [
        {
          "internalType": "address",
          "name": "_address",
          "type": "address"
        }
      ],
      "name": "getAutoClaim",
      "outputs": [
        {
          "components": [
            {
              "internalType": "string",
              "name": "firstName",
              "type": "string"
            }
          ],
          "internalType": "struct SmartClaims.AutoClaim",
          "name": "b",
          "type": "tuple"
        }
      ],
      "payable": false,
      "stateMutability": "view",
      "type": "function"
    },
    {
      "constant": false,
      "inputs": [
        {
          "internalType": "string",
          "name": "_firstName",
          "type": "string"
        }
      ],
      "name": "createAutoClaim",
      "outputs": [],
      "payable": false,
      "stateMutability": "nonpayable",
      "type": "function"
    },
    {
      "constant": false,
      "inputs": [
        {
          "internalType": "uint256",
          "name": "x",
          "type": "uint256"
        }
      ],
      "name": "set",
      "outputs": [],
      "payable": false,
      "stateMutability": "nonpayable",
      "type": "function"
    },
    {
      "constant": true,
      "inputs": [],
      "name": "get",
      "outputs": [
        {
          "internalType": "uint256",
          "name": "",
          "type": "uint256"
        }
      ],
      "payable": false,
      "stateMutability": "view",
      "type": "function"
    }
  ],
  "bytecode": "0x608060405234801561001057600080fd5b5061414c806100206000396000f3fe608060405234801561001057600080fd5b50600436106101585760003560e01c80636d4ce63c116100c3578063af12d15a1161007c578063af12d15a14610420578063de67c1a71461043c578063e17f3f981461046c578063e1a7b61b146104a3578063e72f1fb1146104d3578063ea1cba2d146104ef57610158565b80636d4ce63c1461031657806381eb9a8a146103345780638744b09f1461036b5780638f29151c14610387578063a6d09eb0146103bc578063aafd18fd146103ed57610158565b806337df9f5e1161011557806337df9f5e1461025457806360e1227d1461027057806360fe47b11461028c578063656ad148146102a857806365fa2419146102c45780636718748a146102e057610158565b8063076f3a7c1461015d578063168b25d71461017957806316cc90601461019557806319c82a26146101cc5780631e0676ab14610202578063364079e81461021e575b600080fd5b61017760048036036101729190810190613457565b61050b565b005b610193600480360361018e91908101906131eb565b610655565b005b6101af60048036036101aa919081019061309c565b6107a3565b6040516101c3989796959493929190613b93565b60405180910390f35b6101e660048036036101e1919081019061309c565b610af0565b6040516101f99796959493929190613d5f565b60405180910390f35b61021c60048036036102179190810190613329565b610ec2565b005b6102386004803603610233919081019061309c565b610fe8565b60405161024b9796959493929190613cbf565b60405180910390f35b61026e600480360361026991908101906135b1565b611452565b005b61028a600480360361028591908101906139c3565b611588565b005b6102a660048036036102a19190810190613a04565b6115a7565b005b6102c260048036036102bd919081019061396f565b6115b1565b005b6102de60048036036102d9919081019061316c565b611615565b005b6102fa60048036036102f5919081019061309c565b6116ab565b60405161030d9796959493929190613cbf565b60405180910390f35b61031e611b15565b60405161032b9190613f5c565b60405180910390f35b61034e6004803603610349919081019061309c565b611b1f565b604051610362989796959493929190613df8565b60405180910390f35b61038560048036036103809190810190613849565b611ef7565b005b6103a1600480360361039c919081019061309c565b61204a565b6040516103b396959493929190613c34565b60405180910390f35b6103d660048036036103d1919081019061309c565b612416565b6040516103e4929190613b5c565b60405180910390f35b6104076004803603610402919081019061309c565b61256a565b6040516104179493929190613ae7565b60405180910390f35b61043a600480360361043591908101906130c5565b6126d7565b005b6104566004803603610451919081019061309c565b6127a7565b6040516104639190613b3a565b60405180910390f35b6104866004803603610481919081019061309c565b61285d565b60405161049a989796959493929190613ea0565b60405180910390f35b6104bd60048036036104b8919081019061309c565b612b1f565b6040516104ca9190613f3a565b60405180910390f35b6104ed60048036036104e89190810190613457565b612c1a565b005b610509600480360361050491908101906136f3565b612d64565b005b6040518060e0016040528088815260200187815260200186815260200185815260200184815260200183815260200182815250600160008a73ffffffffffffffffffffffffffffffffffffffff1673ffffffffffffffffffffffffffffffffffffffff1681526020019081526020016000206000820151816000019080519060200190610599929190612ead565b5060208201518160010190805190602001906105b6929190612ead565b5060408201518160020190805190602001906105d3929190612ead565b5060608201518160030190805190602001906105f0929190612ead565b50608082015181600401908051906020019061060d929190612ead565b5060a082015181600501908051906020019061062a929190612ead565b5060c0820151816006019080519060200190610647929190612ead565b509050505050505050505050565b604051806101000160405280898152602001888152602001878152602001868152602001851515815260200184815260200183815260200182815250600260008b73ffffffffffffffffffffffffffffffffffffffff1673ffffffffffffffffffffffffffffffffffffffff16815260200190815260200160002060008201518160000190805190602001906106ec929190612ead565b506020820151816001019080519060200190610709929190612ead565b506040820151816002019080519060200190610726929190612ead565b506060820151816003019080519060200190610743929190612ead565b5060808201518160040160006101000a81548160ff02191690831515021790555060a0820151816005015560c0820151816006015560e0820151816007019080519060200190610794929190612ead565b50905050505050505050505050565b6002602052806000526040600020600091509050806000018054600181600116156101000203166002900480601f01602080910402602001604051908101604052809291908181526020018280546001816001161561010002031660029004801561084f5780601f106108245761010080835404028352916020019161084f565b820191906000526020600020905b81548152906001019060200180831161083257829003601f168201915b505050505090806001018054600181600116156101000203166002900480601f0160208091040260200160405190810160405280929190818152602001828054600181600116156101000203166002900480156108ed5780601f106108c2576101008083540402835291602001916108ed565b820191906000526020600020905b8154815290600101906020018083116108d057829003601f168201915b505050505090806002018054600181600116156101000203166002900480601f01602080910402602001604051908101604052809291908181526020018280546001816001161561010002031660029004801561098b5780601f106109605761010080835404028352916020019161098b565b820191906000526020600020905b81548152906001019060200180831161096e57829003601f168201915b505050505090806003018054600181600116156101000203166002900480601f016020809104026020016040519081016040528092919081815260200182805460018160011615610100020316600290048015610a295780601f106109fe57610100808354040283529160200191610a29565b820191906000526020600020905b815481529060010190602001808311610a0c57829003601f168201915b5050505050908060040160009054906101000a900460ff1690806005015490806006015490806007018054600181600116156101000203166002900480601f016020809104026020016040519081016040528092919081815260200182805460018160011615610100020316600290048015610ae65780601f10610abb57610100808354040283529160200191610ae6565b820191906000526020600020905b815481529060010190602001808311610ac957829003601f168201915b5050505050905088565b6000602052806000526040600020600091509050806000018054600181600116156101000203166002900480601f016020809104026020016040519081016040528092919081815260200182805460018160011615610100020316600290048015610b9c5780601f10610b7157610100808354040283529160200191610b9c565b820191906000526020600020905b815481529060010190602001808311610b7f57829003601f168201915b505050505090806001018054600181600116156101000203166002900480601f016020809104026020016040519081016040528092919081815260200182805460018160011615610100020316600290048015610c3a5780601f10610c0f57610100808354040283529160200191610c3a565b820191906000526020600020905b815481529060010190602001808311610c1d57829003601f168201915b505050505090806002018054600181600116156101000203166002900480601f016020809104026020016040519081016040528092919081815260200182805460018160011615610100020316600290048015610cd85780601f10610cad57610100808354040283529160200191610cd8565b820191906000526020600020905b815481529060010190602001808311610cbb57829003601f168201915b505050505090806003018054600181600116156101000203166002900480601f016020809104026020016040519081016040528092919081815260200182805460018160011615610100020316600290048015610d765780601f10610d4b57610100808354040283529160200191610d76565b820191906000526020600020905b815481529060010190602001808311610d5957829003601f168201915b505050505090806004018054600181600116156101000203166002900480601f016020809104026020016040519081016040528092919081815260200182805460018160011615610100020316600290048015610e145780601f10610de957610100808354040283529160200191610e14565b820191906000526020600020905b815481529060010190602001808311610df757829003601f168201915b505050505090806005018054600181600116156101000203166002900480601f016020809104026020016040519081016040528092919081815260200182805460018160011615610100020316600290048015610eb25780601f10610e8757610100808354040283529160200191610eb2565b820191906000526020600020905b815481529060010190602001808311610e9557829003601f168201915b5050505050908060060154905087565b6040518060c0016040528087815260200186815260200185815260200184815260200183815260200182815250600560008973ffffffffffffffffffffffffffffffffffffffff1673ffffffffffffffffffffffffffffffffffffffff1681526020019081526020016000206000820151816000019080519060200190610f4a929190612ead565b506020820151816001019080519060200190610f67929190612ead565b506040820151816002019080519060200190610f84929190612ead565b506060820151816003019080519060200190610fa1929190612ead565b506080820151816004019080519060200190610fbe929190612ead565b5060a0820151816005019080519060200190610fdb929190612ead565b5090505050505050505050565b6001602052806000526040600020600091509050806000018054600181600116156101000203166002900480601f0160208091040260200160405190810160405280929190818152602001828054600181600116156101000203166002900480156110945780601f1061106957610100808354040283529160200191611094565b820191906000526020600020905b81548152906001019060200180831161107757829003601f168201915b505050505090806001018054600181600116156101000203166002900480601f0160208091040260200160405190810160405280929190818152602001828054600181600116156101000203166002900480156111325780601f1061110757610100808354040283529160200191611132565b820191906000526020600020905b81548152906001019060200180831161111557829003601f168201915b505050505090806002018054600181600116156101000203166002900480601f0160208091040260200160405190810160405280929190818152602001828054600181600116156101000203166002900480156111d05780601f106111a5576101008083540402835291602001916111d0565b820191906000526020600020905b8154815290600101906020018083116111b357829003601f168201915b505050505090806003018054600181600116156101000203166002900480601f01602080910402602001604051908101604052809291908181526020018280546001816001161561010002031660029004801561126e5780601f106112435761010080835404028352916020019161126e565b820191906000526020600020905b81548152906001019060200180831161125157829003601f168201915b505050505090806004018054600181600116156101000203166002900480601f01602080910402602001604051908101604052809291908181526020018280546001816001161561010002031660029004801561130c5780601f106112e15761010080835404028352916020019161130c565b820191906000526020600020905b8154815290600101906020018083116112ef57829003601f168201915b505050505090806005018054600181600116156101000203166002900480601f0160208091040260200160405190810160405280929190818152602001828054600181600116156101000203166002900480156113aa5780601f1061137f576101008083540402835291602001916113aa565b820191906000526020600020905b81548152906001019060200180831161138d57829003601f168201915b505050505090806006018054600181600116156101000203166002900480601f0160208091040260200160405190810160405280929190818152602001828054600181600116156101000203166002900480156114485780601f1061141d57610100808354040283529160200191611448565b820191906000526020600020905b81548152906001019060200180831161142b57829003601f168201915b5050505050905087565b6040518060e00160405280888152602001878152602001868152602001858152602001848152602001838152602001828152506000808a73ffffffffffffffffffffffffffffffffffffffff1673ffffffffffffffffffffffffffffffffffffffff16815260200190815260200160002060008201518160000190805190602001906114df929190612ead565b5060208201518160010190805190602001906114fc929190612ead565b506040820151816002019080519060200190611519929190612ead565b506060820151816003019080519060200190611536929190612ead565b506080820151816004019080519060200190611553929190612ead565b5060a0820151816005019080519060200190611570929190612ead565b5060c082015181600601559050505050505050505050565b611590612f2d565b8181600001819052506115a333826115b1565b5050565b80600a8190555050565b80600960008473ffffffffffffffffffffffffffffffffffffffff1673ffffffffffffffffffffffffffffffffffffffff168152602001908152602001600020600082015181600001908051906020019061160d929190612ead565b509050505050565b604051806040016040528083815260200182815250600360008573ffffffffffffffffffffffffffffffffffffffff1673ffffffffffffffffffffffffffffffffffffffff1681526020019081526020016000206000820151816000019080519060200190611685929190612ead565b5060208201518160010190805190602001906116a2929190612ead565b50905050505050565b6006602052806000526040600020600091509050806000018054600181600116156101000203166002900480601f0160208091040260200160405190810160405280929190818152602001828054600181600116156101000203166002900480156117575780601f1061172c57610100808354040283529160200191611757565b820191906000526020600020905b81548152906001019060200180831161173a57829003601f168201915b505050505090806001018054600181600116156101000203166002900480601f0160208091040260200160405190810160405280929190818152602001828054600181600116156101000203166002900480156117f55780601f106117ca576101008083540402835291602001916117f5565b820191906000526020600020905b8154815290600101906020018083116117d857829003601f168201915b505050505090806002018054600181600116156101000203166002900480601f0160208091040260200160405190810160405280929190818152602001828054600181600116156101000203166002900480156118935780601f1061186857610100808354040283529160200191611893565b820191906000526020600020905b81548152906001019060200180831161187657829003601f168201915b505050505090806003018054600181600116156101000203166002900480601f0160208091040260200160405190810160405280929190818152602001828054600181600116156101000203166002900480156119315780601f1061190657610100808354040283529160200191611931565b820191906000526020600020905b81548152906001019060200180831161191457829003601f168201915b505050505090806004018054600181600116156101000203166002900480601f0160208091040260200160405190810160405280929190818152602001828054600181600116156101000203166002900480156119cf5780601f106119a4576101008083540402835291602001916119cf565b820191906000526020600020905b8154815290600101906020018083116119b257829003601f168201915b505050505090806005018054600181600116156101000203166002900480601f016020809104026020016040519081016040528092919081815260200182805460018160011615610100020316600290048015611a6d5780601f10611a4257610100808354040283529160200191611a6d565b820191906000526020600020905b815481529060010190602001808311611a5057829003601f168201915b505050505090806006018054600181600116156101000203166002900480601f016020809104026020016040519081016040528092919081815260200182805460018160011615610100020316600290048015611b0b5780601f10611ae057610100808354040283529160200191611b0b565b820191906000526020600020905b815481529060010190602001808311611aee57829003601f168201915b5050505050905087565b6000600a54905090565b6004602052806000526040600020600091509050806000018054600181600116156101000203166002900480601f016020809104026020016040519081016040528092919081815260200182805460018160011615610100020316600290048015611bcb5780601f10611ba057610100808354040283529160200191611bcb565b820191906000526020600020905b815481529060010190602001808311611bae57829003601f168201915b505050505090806001018054600181600116156101000203166002900480601f016020809104026020016040519081016040528092919081815260200182805460018160011615610100020316600290048015611c695780601f10611c3e57610100808354040283529160200191611c69565b820191906000526020600020905b815481529060010190602001808311611c4c57829003601f168201915b505050505090806002018054600181600116156101000203166002900480601f016020809104026020016040519081016040528092919081815260200182805460018160011615610100020316600290048015611d075780601f10611cdc57610100808354040283529160200191611d07565b820191906000526020600020905b815481529060010190602001808311611cea57829003601f168201915b505050505090806003015490806004018054600181600116156101000203166002900480601f016020809104026020016040519081016040528092919081815260200182805460018160011615610100020316600290048015611dab5780601f10611d8057610100808354040283529160200191611dab565b820191906000526020600020905b815481529060010190602001808311611d8e57829003601f168201915b505050505090806005018054600181600116156101000203166002900480601f016020809104026020016040519081016040528092919081815260200182805460018160011615610100020316600290048015611e495780601f10611e1e57610100808354040283529160200191611e49565b820191906000526020600020905b815481529060010190602001808311611e2c57829003601f168201915b505050505090806006018054600181600116156101000203166002900480601f016020809104026020016040519081016040528092919081815260200182805460018160011615610100020316600290048015611ee75780601f10611ebc57610100808354040283529160200191611ee7565b820191906000526020600020905b815481529060010190602001808311611eca57829003601f168201915b5050505050908060070154905088565b6040518061010001604052808981526020018881526020018781526020018681526020018581526020018415158152602001838152602001821515815250600760008b73ffffffffffffffffffffffffffffffffffffffff1673ffffffffffffffffffffffffffffffffffffffff1681526020019081526020016000206000820151816000019080519060200190611f90929190612ead565b5060208201518160010155604082015181600201556060820151816003019080519060200190611fc1929190612ead565b506080820151816004019080519060200190611fde929190612ead565b5060a08201518160050160006101000a81548160ff02191690831515021790555060c082015181600601908051906020019061201b929190612ead565b5060e08201518160070160006101000a81548160ff021916908315150217905550905050505050505050505050565b6005602052806000526040600020600091509050806000018054600181600116156101000203166002900480601f0160208091040260200160405190810160405280929190818152602001828054600181600116156101000203166002900480156120f65780601f106120cb576101008083540402835291602001916120f6565b820191906000526020600020905b8154815290600101906020018083116120d957829003601f168201915b505050505090806001018054600181600116156101000203166002900480601f0160208091040260200160405190810160405280929190818152602001828054600181600116156101000203166002900480156121945780601f1061216957610100808354040283529160200191612194565b820191906000526020600020905b81548152906001019060200180831161217757829003601f168201915b505050505090806002018054600181600116156101000203166002900480601f0160208091040260200160405190810160405280929190818152602001828054600181600116156101000203166002900480156122325780601f1061220757610100808354040283529160200191612232565b820191906000526020600020905b81548152906001019060200180831161221557829003601f168201915b505050505090806003018054600181600116156101000203166002900480601f0160208091040260200160405190810160405280929190818152602001828054600181600116156101000203166002900480156122d05780601f106122a5576101008083540402835291602001916122d0565b820191906000526020600020905b8154815290600101906020018083116122b357829003601f168201915b505050505090806004018054600181600116156101000203166002900480601f01602080910402602001604051908101604052809291908181526020018280546001816001161561010002031660029004801561236e5780601f106123435761010080835404028352916020019161236e565b820191906000526020600020905b81548152906001019060200180831161235157829003601f168201915b505050505090806005018054600181600116156101000203166002900480601f01602080910402602001604051908101604052809291908181526020018280546001816001161561010002031660029004801561240c5780601f106123e15761010080835404028352916020019161240c565b820191906000526020600020905b8154815290600101906020018083116123ef57829003601f168201915b5050505050905086565b6003602052806000526040600020600091509050806000018054600181600116156101000203166002900480601f0160208091040260200160405190810160405280929190818152602001828054600181600116156101000203166002900480156124c25780601f10612497576101008083540402835291602001916124c2565b820191906000526020600020905b8154815290600101906020018083116124a557829003601f168201915b505050505090806001018054600181600116156101000203166002900480601f0160208091040260200160405190810160405280929190818152602001828054600181600116156101000203166002900480156125605780601f1061253557610100808354040283529160200191612560565b820191906000526020600020905b81548152906001019060200180831161254357829003601f168201915b5050505050905082565b60086020528060005260406000206000915090508060000160009054906101000a900460ff1690806001018054600181600116156101000203166002900480601f0160208091040260200160405190810160405280929190818152602001828054600181600116156101000203166002900480156126295780601f106125fe57610100808354040283529160200191612629565b820191906000526020600020905b81548152906001019060200180831161260c57829003601f168201915b505050505090806002015490806003018054600181600116156101000203166002900480601f0160208091040260200160405190810160405280929190818152602001828054600181600116156101000203166002900480156126cd5780601f106126a2576101008083540402835291602001916126cd565b820191906000526020600020905b8154815290600101906020018083116126b057829003601f168201915b5050505050905084565b6040518060800160405280851515815260200184815260200183815260200182815250600860008773ffffffffffffffffffffffffffffffffffffffff1673ffffffffffffffffffffffffffffffffffffffff16815260200190815260200160002060008201518160000160006101000a81548160ff0219169083151502179055506020820151816001019080519060200190612775929190612ead565b5060408201518160020155606082015181600301908051906020019061279c929190612ead565b509050505050505050565b6009602052806000526040600020600091509050806000018054600181600116156101000203166002900480601f0160208091040260200160405190810160405280929190818152602001828054600181600116156101000203166002900480156128535780601f1061282857610100808354040283529160200191612853565b820191906000526020600020905b81548152906001019060200180831161283657829003601f168201915b5050505050905081565b6007602052806000526040600020600091509050806000018054600181600116156101000203166002900480601f0160208091040260200160405190810160405280929190818152602001828054600181600116156101000203166002900480156129095780601f106128de57610100808354040283529160200191612909565b820191906000526020600020905b8154815290600101906020018083116128ec57829003601f168201915b505050505090806001015490806002015490806003018054600181600116156101000203166002900480601f0160208091040260200160405190810160405280929190818152602001828054600181600116156101000203166002900480156129b35780601f10612988576101008083540402835291602001916129b3565b820191906000526020600020905b81548152906001019060200180831161299657829003601f168201915b505050505090806004018054600181600116156101000203166002900480601f016020809104026020016040519081016040528092919081815260200182805460018160011615610100020316600290048015612a515780601f10612a2657610100808354040283529160200191612a51565b820191906000526020600020905b815481529060010190602001808311612a3457829003601f168201915b5050505050908060050160009054906101000a900460ff1690806006018054600181600116156101000203166002900480601f016020809104026020016040519081016040528092919081815260200182805460018160011615610100020316600290048015612b025780601f10612ad757610100808354040283529160200191612b02565b820191906000526020600020905b815481529060010190602001808311612ae557829003601f168201915b5050505050908060070160009054906101000a900460ff16905088565b612b27612f2d565b600960008373ffffffffffffffffffffffffffffffffffffffff1673ffffffffffffffffffffffffffffffffffffffff168152602001908152602001600020604051806020016040529081600082018054600181600116156101000203166002900480601f016020809104026020016040519081016040528092919081815260200182805460018160011615610100020316600290048015612c0a5780601f10612bdf57610100808354040283529160200191612c0a565b820191906000526020600020905b815481529060010190602001808311612bed57829003601f168201915b5050505050815250509050919050565b6040518060e0016040528088815260200187815260200186815260200185815260200184815260200183815260200182815250600660008a73ffffffffffffffffffffffffffffffffffffffff1673ffffffffffffffffffffffffffffffffffffffff1681526020019081526020016000206000820151816000019080519060200190612ca8929190612ead565b506020820151816001019080519060200190612cc5929190612ead565b506040820151816002019080519060200190612ce2929190612ead565b506060820151816003019080519060200190612cff929190612ead565b506080820151816004019080519060200190612d1c929190612ead565b5060a0820151816005019080519060200190612d39929190612ead565b5060c0820151816006019080519060200190612d56929190612ead565b509050505050505050505050565b60405180610100016040528089815260200188815260200187815260200186815260200185815260200184815260200183815260200182815250600460008b73ffffffffffffffffffffffffffffffffffffffff1673ffffffffffffffffffffffffffffffffffffffff1681526020019081526020016000206000820151816000019080519060200190612df9929190612ead565b506020820151816001019080519060200190612e16929190612ead565b506040820151816002019080519060200190612e33929190612ead565b50606082015181600301556080820151816004019080519060200190612e5a929190612ead565b5060a0820151816005019080519060200190612e77929190612ead565b5060c0820151816006019080519060200190612e94929190612ead565b5060e08201518160070155905050505050505050505050565b828054600181600116156101000203166002900490600052602060002090601f016020900481019282601f10612eee57805160ff1916838001178555612f1c565b82800160010185558215612f1c579182015b82811115612f1b578251825591602001919060010190612f00565b5b509050612f299190612f40565b5090565b6040518060200160405280606081525090565b612f6291905b80821115612f5e576000816000905550600101612f46565b5090565b90565b600081359050612f74816140c4565b92915050565b600081359050612f89816140db565b92915050565b600082601f830112612fa057600080fd5b8135612fb3612fae82613fa4565b613f77565b91508082526020830160208301858383011115612fcf57600080fd5b612fda838284614071565b50505092915050565b600082601f830112612ff457600080fd5b813561300761300282613fd0565b613f77565b9150808252602083016020830185838301111561302357600080fd5b61302e838284614071565b50505092915050565b60006020828403121561304957600080fd5b6130536020613f77565b9050600082013567ffffffffffffffff81111561306f57600080fd5b61307b84828501612f8f565b60008301525092915050565b600081359050613096816140f2565b92915050565b6000602082840312156130ae57600080fd5b60006130bc84828501612f65565b91505092915050565b600080600080600060a086880312156130dd57600080fd5b60006130eb88828901612f65565b95505060206130fc88828901612f7a565b945050604086013567ffffffffffffffff81111561311957600080fd5b61312588828901612fe3565b935050606061313688828901613087565b925050608086013567ffffffffffffffff81111561315357600080fd5b61315f88828901612fe3565b9150509295509295909350565b60008060006060848603121561318157600080fd5b600061318f86828701612f65565b935050602084013567ffffffffffffffff8111156131ac57600080fd5b6131b886828701612fe3565b925050604084013567ffffffffffffffff8111156131d557600080fd5b6131e186828701612fe3565b9150509250925092565b60008060008060008060008060006101208a8c03121561320a57600080fd5b60006132188c828d01612f65565b99505060208a013567ffffffffffffffff81111561323557600080fd5b6132418c828d01612fe3565b98505060408a013567ffffffffffffffff81111561325e57600080fd5b61326a8c828d01612fe3565b97505060608a013567ffffffffffffffff81111561328757600080fd5b6132938c828d01612fe3565b96505060808a013567ffffffffffffffff8111156132b057600080fd5b6132bc8c828d01612fe3565b95505060a06132cd8c828d01612f7a565b94505060c06132de8c828d01613087565b93505060e06132ef8c828d01613087565b9250506101008a013567ffffffffffffffff81111561330d57600080fd5b6133198c828d01612fe3565b9150509295985092959850929598565b600080600080600080600060e0888a03121561334457600080fd5b60006133528a828b01612f65565b975050602088013567ffffffffffffffff81111561336f57600080fd5b61337b8a828b01612fe3565b965050604088013567ffffffffffffffff81111561339857600080fd5b6133a48a828b01612fe3565b955050606088013567ffffffffffffffff8111156133c157600080fd5b6133cd8a828b01612fe3565b945050608088013567ffffffffffffffff8111156133ea57600080fd5b6133f68a828b01612fe3565b93505060a088013567ffffffffffffffff81111561341357600080fd5b61341f8a828b01612fe3565b92505060c088013567ffffffffffffffff81111561343c57600080fd5b6134488a828b01612fe3565b91505092959891949750929550565b600080600080600080600080610100898b03121561347457600080fd5b60006134828b828c01612f65565b985050602089013567ffffffffffffffff81111561349f57600080fd5b6134ab8b828c01612fe3565b975050604089013567ffffffffffffffff8111156134c857600080fd5b6134d48b828c01612fe3565b965050606089013567ffffffffffffffff8111156134f157600080fd5b6134fd8b828c01612fe3565b955050608089013567ffffffffffffffff81111561351a57600080fd5b6135268b828c01612fe3565b94505060a089013567ffffffffffffffff81111561354357600080fd5b61354f8b828c01612fe3565b93505060c089013567ffffffffffffffff81111561356c57600080fd5b6135788b828c01612fe3565b92505060e089013567ffffffffffffffff81111561359557600080fd5b6135a18b828c01612fe3565b9150509295985092959890939650565b600080600080600080600080610100898b0312156135ce57600080fd5b60006135dc8b828c01612f65565b985050602089013567ffffffffffffffff8111156135f957600080fd5b6136058b828c01612fe3565b975050604089013567ffffffffffffffff81111561362257600080fd5b61362e8b828c01612fe3565b965050606089013567ffffffffffffffff81111561364b57600080fd5b6136578b828c01612fe3565b955050608089013567ffffffffffffffff81111561367457600080fd5b6136808b828c01612fe3565b94505060a089013567ffffffffffffffff81111561369d57600080fd5b6136a98b828c01612fe3565b93505060c089013567ffffffffffffffff8111156136c657600080fd5b6136d28b828c01612fe3565b92505060e06136e38b828c01613087565b9150509295985092959890939650565b60008060008060008060008060006101208a8c03121561371257600080fd5b60006137208c828d01612f65565b99505060208a013567ffffffffffffffff81111561373d57600080fd5b6137498c828d01612fe3565b98505060408a013567ffffffffffffffff81111561376657600080fd5b6137728c828d01612fe3565b97505060608a013567ffffffffffffffff81111561378f57600080fd5b61379b8c828d01612fe3565b96505060806137ac8c828d01613087565b95505060a08a013567ffffffffffffffff8111156137c957600080fd5b6137d58c828d01612fe3565b94505060c08a013567ffffffffffffffff8111156137f257600080fd5b6137fe8c828d01612fe3565b93505060e08a013567ffffffffffffffff81111561381b57600080fd5b6138278c828d01612fe3565b9250506101006138398c828d01613087565b9150509295985092959850929598565b60008060008060008060008060006101208a8c03121561386857600080fd5b60006138768c828d01612f65565b99505060208a013567ffffffffffffffff81111561389357600080fd5b61389f8c828d01612fe3565b98505060406138b08c828d01613087565b97505060606138c18c828d01613087565b96505060808a013567ffffffffffffffff8111156138de57600080fd5b6138ea8c828d01612fe3565b95505060a08a013567ffffffffffffffff81111561390757600080fd5b6139138c828d01612fe3565b94505060c06139248c828d01612f7a565b93505060e08a013567ffffffffffffffff81111561394157600080fd5b61394d8c828d01612fe3565b92505061010061395f8c828d01612f7a565b9150509295985092959850929598565b6000806040838503121561398257600080fd5b600061399085828601612f65565b925050602083013567ffffffffffffffff8111156139ad57600080fd5b6139b985828601613037565b9150509250929050565b6000602082840312156139d557600080fd5b600082013567ffffffffffffffff8111156139ef57600080fd5b6139fb84828501612fe3565b91505092915050565b600060208284031215613a1657600080fd5b6000613a2484828501613087565b91505092915050565b613a368161403b565b82525050565b6000613a4782613ffc565b613a518185614007565b9350613a61818560208601614080565b613a6a816140b3565b840191505092915050565b6000613a8082613ffc565b613a8a8185614018565b9350613a9a818560208601614080565b613aa3816140b3565b840191505092915050565b60006020830160008301518482036000860152613acb8282613a3c565b9150508091505092915050565b613ae181614067565b82525050565b6000608082019050613afc6000830187613a2d565b8181036020830152613b0e8186613a75565b9050613b1d6040830185613ad8565b8181036060830152613b2f8184613a75565b905095945050505050565b60006020820190508181036000830152613b548184613a75565b905092915050565b60006040820190508181036000830152613b768185613a75565b90508181036020830152613b8a8184613a75565b90509392505050565b6000610100820190508181036000830152613bae818b613a75565b90508181036020830152613bc2818a613a75565b90508181036040830152613bd68189613a75565b90508181036060830152613bea8188613a75565b9050613bf96080830187613a2d565b613c0660a0830186613ad8565b613c1360c0830185613ad8565b81810360e0830152613c258184613a75565b90509998505050505050505050565b600060c0820190508181036000830152613c4e8189613a75565b90508181036020830152613c628188613a75565b90508181036040830152613c768187613a75565b90508181036060830152613c8a8186613a75565b90508181036080830152613c9e8185613a75565b905081810360a0830152613cb28184613a75565b9050979650505050505050565b600060e0820190508181036000830152613cd9818a613a75565b90508181036020830152613ced8189613a75565b90508181036040830152613d018188613a75565b90508181036060830152613d158187613a75565b90508181036080830152613d298186613a75565b905081810360a0830152613d3d8185613a75565b905081810360c0830152613d518184613a75565b905098975050505050505050565b600060e0820190508181036000830152613d79818a613a75565b90508181036020830152613d8d8189613a75565b90508181036040830152613da18188613a75565b90508181036060830152613db58187613a75565b90508181036080830152613dc98186613a75565b905081810360a0830152613ddd8185613a75565b9050613dec60c0830184613ad8565b98975050505050505050565b6000610100820190508181036000830152613e13818b613a75565b90508181036020830152613e27818a613a75565b90508181036040830152613e3b8189613a75565b9050613e4a6060830188613ad8565b8181036080830152613e5c8187613a75565b905081810360a0830152613e708186613a75565b905081810360c0830152613e848185613a75565b9050613e9360e0830184613ad8565b9998505050505050505050565b6000610100820190508181036000830152613ebb818b613a75565b9050613eca602083018a613ad8565b613ed76040830189613ad8565b8181036060830152613ee98188613a75565b90508181036080830152613efd8187613a75565b9050613f0c60a0830186613a2d565b81810360c0830152613f1e8185613a75565b9050613f2d60e0830184613a2d565b9998505050505050505050565b60006020820190508181036000830152613f548184613aae565b905092915050565b6000602082019050613f716000830184613ad8565b92915050565b6000604051905081810181811067ffffffffffffffff82111715613f9a57600080fd5b8060405250919050565b600067ffffffffffffffff821115613fbb57600080fd5b601f19601f8301169050602081019050919050565b600067ffffffffffffffff821115613fe757600080fd5b601f19601f8301169050602081019050919050565b600081519050919050565b600082825260208201905092915050565b600082825260208201905092915050565b600061403482614047565b9050919050565b60008115159050919050565b600073ffffffffffffffffffffffffffffffffffffffff82169050919050565b6000819050919050565b82818337600083830152505050565b60005b8381101561409e578082015181840152602081019050614083565b838111156140ad576000848401525b50505050565b6000601f19601f8301169050919050565b6140cd81614029565b81146140d857600080fd5b50565b6140e48161403b565b81146140ef57600080fd5b50565b6140fb81614067565b811461410657600080fd5b5056fea365627a7a723158203dbfd4ebeb34948a2a43d482d242bc90ef4409eb52d05feb581756f6ab50f2ec6c6578706572696d656e74616cf564736f6c63430005100040",
  "source": "pragma solidity >=0.4.21 <0.7.0;\npragma experimental ABIEncoderV2;\n\ncontract SmartClaims {\n    struct AutoClaim \n    {\n        string firstName;\n        /*\n        string lastName;\n        string gender;  \n        string dob;\n        string licenseNumber;\n        string phoneNumber;\n        uint policyNumber;\n        string city;\n        string state;\n        string zip;\n        \n        string vehicleMake;\n        string vehicleModel;\n        string vehicleYear;\n        string vehicleColor;\n        string licensePlate;\n        \n        string accidentDate;\n        string accidentTime;\n        string accidentLocation;\n        string driverName;\n        bool towed;\n        uint passengerNum;\n        uint carsNum;\n        string damagedArea;\n        \n        string accidentExplanation; \n        */\n    }\n    \n    struct PersonW \n    {\n        string name;\n        string phoneNum;\n    }\n    \n    struct PropertyClaim \n    {\n        string firstName;\n        /*\n        string lastName;\n        string gender;\n        uint estimateLoss;\n        string lossExp;\n        string damagedDescription;\n        string personContacted;\n        uint reportNum;\n        string personResponsible;\n        string comments;\n        PersonW[] witnesses;\n        string personReportName;\n        string personReportPhone;\n        string personReportEmail;\n        string personReportDate;\n        */\n    }\n    \n    struct HealthClaim\n    {\n        string firstName;\n        /*\n        string lastName;\n        string gender;\n        string dob;\n        string city;\n        string state;\n        string zip;\n        string phoneNumber;\n        uint accountNumber;\n        uint socialSecurity;\n        string employerName;\n        string status;\n        \n        bool employmentRelated;\n        string description;\n        bool autoAccident;\n        bool medicareCovered;\n        string insuranceCompanyName;\n        uint dateAccident;\n        \n        string signature;\n        */\n    }\n\n    struct firsteighta{\n    \n        string firstName;\n        string lastName;\n        string gender;\n        string dob;\n        string licenseNumber;\n        string phoneNumber;\n        uint policyNumber;\n        \n    \n    }\n    struct secondeighta{\n    \n        string state;\n        string zip;\n        \n        string vehicleMake;\n        string vehicleModel;\n        string vehicleYear;\n        string vehicleColor;\n        string licensePlate;\n    \n    }\n    \n    struct thirdeighta\n   {\n        string accidentDate;\n        string accidentTime;\n        string accidentLocation;\n        string driverName;\n        bool towed;\n        uint passengerNum;\n        uint carsNum;\n        string damagedArea;\n       \n\n\n    }\n    struct fourtha\n   {\n        string city;\n        string accidentExplanation;\n    }\n   \n   \n   //property claim parts\n   \n    struct first8p\n    {\n        string firstName;\n        string lastName;\n        string gender;\n        uint estimateLoss;\n        string lossExp;\n        string damagedDescription;\n        string personContacted;\n        uint reportNum;\n    }\n    struct second8p\n   {\n        string personResponsible;\n        string comments;\n   \n        string personReportName;\n        string personReportPhone;\n        string personReportEmail;\n        string personReportDate;\n\n    }\n   \n   //health claim parts\n   \n    struct health1{\n       \n        string firstName;\n        string lastName;\n        string gender;\n        string dob;\n        string city;\n        string state;\n        string zip;\n\n       \n    }\n    struct health2{\n       \n        string phoneNumber;\n        uint accountNumber;\n        uint socialSecurity;\n        string employerName;\n        string status;\n        bool employmentRelated;\n        string description;\n        bool autoAccident;\n\n       \n    }\n    struct health3{\n       \n        bool medicareCovered;\n        string insuranceCompanyName;\n        uint dateAccident;\n        string signature;\n\n    }\n   \n    mapping(address => firsteighta) public firstsa;\n    mapping (address => secondeighta) public secondsa;\n    mapping (address => thirdeighta) public thirdsa;\n    mapping (address => fourtha) public fourthsa;\n\n\n    mapping(address => first8p) public firstsp;\n    mapping (address => second8p) public secondsp;\n\n\n    mapping(address => health1) public firstsh;\n    mapping (address => health2) public secondsh;\n    mapping (address => health3) public thirdsh;\n\n\n\n\n\n\n\n\t\n  \t\n  \t// AutoClaim autoClaims[] = new AutoClaim[](3);\n    // HealthClaim healthClaims[] = new HealthClaim[](3);\n    // PropertyClaim propClaims[] = new PropertyClaim[](3);\n\n\t//mapping is kind of like creating a dict\n\n\n\n\n\n\n\n    function fileAutoClaimfirst(\n        address _address,  \n        string memory _firstName,\n        string memory _lastName,\n        string memory _gender,\n        string memory _dob,\n        string memory _licenseNumber,\n        string memory _phoneNumber,\n        uint _policyNumber\n        \n) public {\n    \n        firstsa[_address] = firsteighta(_firstName, _lastName, _gender, _dob, _licenseNumber, _phoneNumber, _policyNumber);\n       \n       \n    }\n    \n    function fileAutoClaimsecond(address _address, string memory _state, string memory _zip, string memory _vehicleMake, string memory _vehicleModel, string memory _vehicleYear, string memory _vehicleColor, string memory _licensePlate) public {\n            \n    \n        secondsa[_address] = secondeighta(_state, _zip, _vehicleMake, _vehicleModel, _vehicleYear, _vehicleColor, _licensePlate);\n    \n            \n        \n        \n    }\n    \n    function fileAutoClaimsthird(address _address, string memory _accidentDate, string memory _accidentTime, string memory _accidentLocation, string memory _driverName, bool _towed,  uint _passengerNum, uint _carsNum, string memory _damagedArea) public {\n            \n            \n            \n        thirdsa[_address] = thirdeighta(_accidentDate, _accidentTime, _accidentLocation, _driverName, _towed, _passengerNum, _carsNum, _damagedArea);\n\n    }\n     \n     \n     \n    function fileAutoClaimsfourth(address _address, string memory _city, string memory _accidentExplanation) public {\n            \n            \n            \n        fourthsa[_address] = fourtha(_city,_accidentExplanation);\n\n    }\n     \n     \n    function filePropertyClaimfirst(address _address, string memory _firstName, string memory _lastName, string memory _gender, uint _estimateLoss, string memory _lossExp, string memory _damagedDescription, string memory _personContacted, uint _reportNum) public {\n        \n        \n        firstsp[_address] = first8p(_firstName, _lastName,  _gender,  _estimateLoss,  _lossExp,  _damagedDescription,  _personContacted, _reportNum);\n       \n    }\n    \n    \n    \n    \n    function filePropertyClaimsecond(address _address, string memory personResponsible, string memory comments, string memory personReportName, string memory personReportPhone, string memory personReportEmail, string memory personReportDate ) public {\n                     \n                     \n        secondsp[_address] = second8p(personResponsible, comments, personReportName, personReportPhone, personReportEmail, personReportDate );\n        \n    }\n    \n    \n    \n    \n    function fileHealthClaimfirst(address _address,  string memory _firstName,string memory _lastName, string memory _gender, string memory _dob, string memory _city, string memory _state, string memory _zip) public {\n        firstsh[_address] = health1(_firstName, _lastName,  _gender,  _dob,  _city,  _state, _zip);\n       \n    }\n    function fileHealthClaimsecond(address _address, string memory _phoneNumber, uint _accountNumber, uint _socialSecurity, string memory _employerName, string memory _status, bool _employmentRelated, string memory _description, bool _autoAccident ) public {\n        secondsh[_address] = health2(_phoneNumber,  _accountNumber,  _socialSecurity,  _employerName,  _status,  _employmentRelated,  _description,  _autoAccident );\n        \n    }\n    function fileHealthClaimthird(address _address,  bool _medicareCovered, string memory _insuranceCompanyName, uint _dateAccident, string memory _signature) public {\n        \n        thirdsh[_address] = health3(_medicareCovered, _insuranceCompanyName, _dateAccident, _signature);\n    }\n\n    \n\n\n\n\n\n\n\n\n\n\n\n\n\n\n\n\n\n\n\n\n\n\n\n\n\n\n\n\n    mapping(address => AutoClaim) public autoMap;    \n    // address[] public autoFilers; // addresses of auto claim filers --> all addresses in autoMap\n    \n    function fileAutoClaim(address _address, AutoClaim memory _claim) public {  // puts in autoMap\n        autoMap[_address] = _claim;\n        // autoFilers.push(_address) - 1;\n    }\n    \n    /*\n    function getAutoFilers() public view returns (address[] memory a) { \n        return autoFilers;  // returns all addresses\n    }\n    */ \n\n    function getAutoClaim(address _address) public view returns (AutoClaim memory b) { // gets address \n        return autoMap[_address];   // returns AutoClaim\n    }\n\n    function createAutoClaim(string memory _firstName) public{\n  \n        AutoClaim memory insertAC;\n        insertAC.firstName = _firstName;\n        fileAutoClaim(msg.sender, insertAC);  \n    }\n    uint storedData;\n\n    function set(uint x) public {\n        storedData = x;\n    }\n\n    function get() public view returns (uint) {\n        return storedData;\n    }\n}",
  "sourcePath": "C:/Users/n1554751/OneDrive - Liberty Mutual/Documents/truffleProject/david-long-fanclub/contracts/SmartClaims.sol",
  "compiler": {
    "name": "solc",
    "version": "0.5.16+commit.9c3226ce.Emscripten.clang"
  },
  "schemaVersion": "3.4.1",
  "updatedAt": "2021-07-16T13:12:15.731Z",
  "networkType": "ethereum",
  "devdoc": {
    "methods": {}
  },
  "userdoc": {
    "methods": {}
  }
}