{
  "contractName": "SmartClaims",
  "abi": [
    {
      "constant": true,
      "inputs": [
        {
          "internalType": "address",
          "name": "",
          "type": "address"
        }
      ],
      "name": "autoMap",
      "outputs": [
        {
          "internalType": "string",
          "name": "firstName",
          "type": "string"
        }
      ],
      "payable": false,
      "stateMutability": "view",
      "type": "function"
    },
    {
      "constant": false,
      "inputs": [
        {
          "internalType": "address",
          "name": "_address",
          "type": "address"
        },
        {
          "components": [
            {
              "internalType": "string",
              "name": "firstName",
              "type": "string"
            }
          ],
          "internalType": "struct SmartClaims.AutoClaim",
          "name": "_claim",
          "type": "tuple"
        }
      ],
      "name": "fileAutoClaim",
      "outputs": [],
      "payable": false,
      "stateMutability": "nonpayable",
      "type": "function"
    },
    {
      "constant": true,
      "inputs": [
        {
          "internalType": "address",
          "name": "_address",
          "type": "address"
        }
      ],
      "name": "getAutoClaim",
      "outputs": [
        {
          "components": [
            {
              "internalType": "string",
              "name": "firstName",
              "type": "string"
            }
          ],
          "internalType": "struct SmartClaims.AutoClaim",
          "name": "b",
          "type": "tuple"
        }
      ],
      "payable": false,
      "stateMutability": "view",
      "type": "function"
    },
    {
      "constant": false,
      "inputs": [
        {
          "internalType": "string",
          "name": "_firstName",
          "type": "string"
        }
      ],
      "name": "createAutoClaim",
      "outputs": [],
      "payable": false,
      "stateMutability": "nonpayable",
      "type": "function"
    },
    {
      "constant": false,
      "inputs": [
        {
          "internalType": "uint256",
          "name": "x",
          "type": "uint256"
        }
      ],
      "name": "set",
      "outputs": [],
      "payable": false,
      "stateMutability": "nonpayable",
      "type": "function"
    },
    {
      "constant": true,
      "inputs": [],
      "name": "get",
      "outputs": [
        {
          "internalType": "uint256",
          "name": "",
          "type": "uint256"
        }
      ],
      "payable": false,
      "stateMutability": "view",
      "type": "function"
    }
  ],
  "bytecode": "0x608060405234801561001057600080fd5b506108fc806100206000396000f3fe608060405234801561001057600080fd5b50600436106100625760003560e01c806360e1227d1461006757806360fe47b114610083578063656ad1481461009f5780636d4ce63c146100bb578063de67c1a7146100d9578063e1a7b61b14610109575b600080fd5b610081600480360361007c91908101906105d6565b610139565b005b61009d60048036036100989190810190610617565b610158565b005b6100b960048036036100b49190810190610582565b610162565b005b6100c36101c5565b6040516100d0919061072f565b60405180910390f35b6100f360048036036100ee9190810190610559565b6101cf565b60405161010091906106eb565b60405180910390f35b610123600480360361011e9190810190610559565b610285565b604051610130919061070d565b60405180910390f35b61014161037f565b8181600001819052506101543382610162565b5050565b8060018190555050565b806000808473ffffffffffffffffffffffffffffffffffffffff1673ffffffffffffffffffffffffffffffffffffffff16815260200190815260200160002060008201518160000190805190602001906101bd929190610392565b509050505050565b6000600154905090565b6000602052806000526040600020600091509050806000018054600181600116156101000203166002900480601f01602080910402602001604051908101604052809291908181526020018280546001816001161561010002031660029004801561027b5780601f106102505761010080835404028352916020019161027b565b820191906000526020600020905b81548152906001019060200180831161025e57829003601f168201915b5050505050905081565b61028d61037f565b6000808373ffffffffffffffffffffffffffffffffffffffff1673ffffffffffffffffffffffffffffffffffffffff168152602001908152602001600020604051806020016040529081600082018054600181600116156101000203166002900480601f01602080910402602001604051908101604052809291908181526020018280546001816001161561010002031660029004801561036f5780601f106103445761010080835404028352916020019161036f565b820191906000526020600020905b81548152906001019060200180831161035257829003601f168201915b5050505050815250509050919050565b6040518060200160405280606081525090565b828054600181600116156101000203166002900490600052602060002090601f016020900481019282601f106103d357805160ff1916838001178555610401565b82800160010185558215610401579182015b828111156104005782518255916020019190600101906103e5565b5b50905061040e9190610412565b5090565b61043491905b80821115610430576000816000905550600101610418565b5090565b90565b6000813590506104468161088b565b92915050565b600082601f83011261045d57600080fd5b813561047061046b82610777565b61074a565b9150808252602083016020830185838301111561048c57600080fd5b610497838284610838565b50505092915050565b600082601f8301126104b157600080fd5b81356104c46104bf826107a3565b61074a565b915080825260208301602083018583830111156104e057600080fd5b6104eb838284610838565b50505092915050565b60006020828403121561050657600080fd5b610510602061074a565b9050600082013567ffffffffffffffff81111561052c57600080fd5b6105388482850161044c565b60008301525092915050565b600081359050610553816108a2565b92915050565b60006020828403121561056b57600080fd5b600061057984828501610437565b91505092915050565b6000806040838503121561059557600080fd5b60006105a385828601610437565b925050602083013567ffffffffffffffff8111156105c057600080fd5b6105cc858286016104f4565b9150509250929050565b6000602082840312156105e857600080fd5b600082013567ffffffffffffffff81111561060257600080fd5b61060e848285016104a0565b91505092915050565b60006020828403121561062957600080fd5b600061063784828501610544565b91505092915050565b600061064b826107cf565b61065581856107da565b9350610665818560208601610847565b61066e8161087a565b840191505092915050565b6000610684826107cf565b61068e81856107eb565b935061069e818560208601610847565b6106a78161087a565b840191505092915050565b600060208301600083015184820360008601526106cf8282610640565b9150508091505092915050565b6106e58161082e565b82525050565b600060208201905081810360008301526107058184610679565b905092915050565b6000602082019050818103600083015261072781846106b2565b905092915050565b600060208201905061074460008301846106dc565b92915050565b6000604051905081810181811067ffffffffffffffff8211171561076d57600080fd5b8060405250919050565b600067ffffffffffffffff82111561078e57600080fd5b601f19601f8301169050602081019050919050565b600067ffffffffffffffff8211156107ba57600080fd5b601f19601f8301169050602081019050919050565b600081519050919050565b600082825260208201905092915050565b600082825260208201905092915050565b60006108078261080e565b9050919050565b600073ffffffffffffffffffffffffffffffffffffffff82169050919050565b6000819050919050565b82818337600083830152505050565b60005b8381101561086557808201518184015260208101905061084a565b83811115610874576000848401525b50505050565b6000601f19601f8301169050919050565b610894816107fc565b811461089f57600080fd5b50565b6108ab8161082e565b81146108b657600080fd5b5056fea365627a7a72315820c3c9937c1ee3eda7e57aaaf5960f2739837c59b91308d190194ee1af33bc03866c6578706572696d656e74616cf564736f6c63430005100040",
  "source": "pragma solidity >=0.4.21 <0.7.0;\r\npragma experimental ABIEncoderV2;\r\n\r\ncontract SmartClaims {\r\n    struct AutoClaim \r\n    {\r\n        string firstName;\r\n        /*\r\n        string lastName;\r\n        string gender;  \r\n        string dob;\r\n        string licenseNumber;\r\n        string phoneNumber;\r\n        uint policyNumber;\r\n        string city;\r\n        string state;\r\n        string zip;\r\n        \r\n        string vehicleMake;\r\n        string vehicleModel;\r\n        string vehicleYear;\r\n        string vehicleColor;\r\n        string licensePlate;\r\n        \r\n        string accidentDate;\r\n        string accidentTime;\r\n        string accidentLocation;\r\n        string driverName;\r\n        bool towed;\r\n        uint passengerNum;\r\n        uint carsNum;\r\n        string damagedArea;\r\n        \r\n        string accidentExplanation; \r\n        */\r\n    }\r\n    \r\n    struct PersonW \r\n    {\r\n        string name;\r\n        string phoneNum;\r\n    }\r\n    \r\n    struct PropertyClaim \r\n    {\r\n        string firstName;\r\n        /*\r\n        string lastName;\r\n        string gender;\r\n        uint estimateLoss;\r\n        string lossExp;\r\n        string damagedDescription;\r\n        string personContacted;\r\n        uint reportNum;\r\n        string personResponsible;\r\n        string comments;\r\n        PersonW[] witnesses;\r\n        string personReportName;\r\n        string personReportPhone;\r\n        string personReportEmail;\r\n        string personReportDate;\r\n        */\r\n    }\r\n    \r\n    struct HealthClaim\r\n    {\r\n        string firstName;\r\n        /*\r\n        string lastName;\r\n        string gender;\r\n        string dob;\r\n        string city;\r\n        string state;\r\n        string zip;\r\n        string phoneNumber;\r\n        uint accountNumber;\r\n        uint socialSecurity;\r\n        string employerName;\r\n        string status;\r\n        \r\n        bool employmentRelated;\r\n        string description;\r\n        bool autoAccident;\r\n        bool medicareCovered;\r\n        string insuranceCompanyName;\r\n        uint dateAccident;\r\n        \r\n        string signature;\r\n        */\r\n    }\r\n\t\r\n  \t\r\n  \t// AutoClaim autoClaims[] = new AutoClaim[](3);\r\n    // HealthClaim healthClaims[] = new HealthClaim[](3);\r\n    // PropertyClaim propClaims[] = new PropertyClaim[](3);\r\n\r\n\t//mapping is kind of like creating a dict\r\n    mapping(address => AutoClaim) public autoMap;    \r\n    // address[] public autoFilers; // addresses of auto claim filers --> all addresses in autoMap\r\n    \r\n    function fileAutoClaim(address _address, AutoClaim memory _claim) public {  // puts in autoMap\r\n        autoMap[_address] = _claim;\r\n        // autoFilers.push(_address) - 1;\r\n    }\r\n    \r\n    /*\r\n    function getAutoFilers() public view returns (address[] memory a) { \r\n        return autoFilers;  // returns all addresses\r\n    }\r\n    */ \r\n\r\n    function getAutoClaim(address _address) public view returns (AutoClaim memory b) { // gets address \r\n        return autoMap[_address];   // returns AutoClaim\r\n    }\r\n\r\n    function createAutoClaim(string memory _firstName) public{\r\n  \r\n        AutoClaim memory insertAC;\r\n        insertAC.firstName = _firstName;\r\n        fileAutoClaim(msg.sender, insertAC);  \r\n    }\r\n    uint storedData;\r\n\r\n    function set(uint x) public {\r\n        storedData = x;\r\n    }\r\n\r\n    function get() public view returns (uint) {\r\n        return storedData;\r\n    }\r\n}\r\n\r\n\r\n\r\n\r\n\r\n\r\n\r\n\r\n\r\n\r\n\r\n\r\n\r\n\r\n\r\n\r\n\r\n\r\n",
  "sourcePath": "C:/Users/n1554252/OneDrive - Liberty Mutual/Desktop/david-long-fanclub/contracts/SmartClaims.sol",
  "compiler": {
    "name": "solc",
    "version": "0.5.16+commit.9c3226ce.Emscripten.clang"
  },
  "schemaVersion": "3.4.1",
  "updatedAt": "2021-07-16T00:58:28.493Z",
  "networkType": "ethereum",
  "devdoc": {
    "methods": {}
  },
  "userdoc": {
    "methods": {}
  }
}